:08000000803102288731EB2F4B
:10096A00FE0012001E00FE0BB62C00345830210087
:10097A0099009801220096010800853116258431D4
:10098A008431BB2484310800203405340C3400340B
:10099A00043402340C3400347009F40072088600FE
:1009AA008701740881057308F400710ADD2CF43597
:1009BA00890BDC2C74087005F50072088600870123
:1009CA00750881040800FD007D08853141258431C0
:1009DA007B08873EFC007C08F6007D0886312F26BE
:1009EA0084317D0885316E2584317D0885319F25C6
:1009FA008431080020002008C0002108C100220814
:100A0A00C2002308C3002408C4002508C500083012
:100A1A00A6002608FB0040308431E82484314030A7
:100A2A00080022008C018D018E01133021008C00F8
:100A3A00F0308D00FF308E00CF3023008E00F03072
:100A4A008D0011308C0024008D018C018E01210053
:100A5A00951725008C018D018E01373026008C00F8
:100A6A00F0308D00FF308E003F3027008C00F030D0
:100A7A008D00FF308E000800F6007608033E8600DF
:100A8A008701403FF000413FF100423FF200F3018D
:100A9A00F30A8431D1248531760886008701403FE4
:100AAA00F000413FF100423FF200F301F30A8431C2
:100ABA00D12485310032760886008701403FF00054
:100ACA00413FF100423FF200F3018431D1248531E4
:100ADA000800F6007608033E86008701403FF000D2
:100AEA00413FF100423FF200F3018431D1248531C4
:100AFA000032003200007608033E86008701403F3C
:100B0A00F000413FF100423FF200F301F30A843161
:100B1A00D124853100327608033E86008701403FA2
:100B2A00F000413FF100423FF200F3018431D12449
:100B3A0085310800F6007608033E86008701403FAB
:100B4A00F000413FF100423FF200F3018431D12429
:100B5A0085310032760886008701403FF000413F28
:100B6A00F100423FF200F3018431D1248531003291
:100B7A007608033E86008701403FF000413FF100BE
:100B8A00423FF200F301F30A8431D1248531003265
:100B9A00760886008701403FF000413FF100423F5E
:100BAA00F200F301F30A8431D12485310800F601F9
:100BBA00F31FE02DE12DE82DF209F309F20A0319DA
:100BCA00F30AF601F60AF11FEB2DEC2DF12DF009CF
:100BDA00F109F00A0319F10A700871040319F62DD4
:100BEA00F72D202EF501F50A032E0130F035F10D0F
:100BFA00890BFB2D0130F4007408F507F11F062E4E
:100C0A00072EFA2D71087302031D0D2E7008720249
:100C1A00031C102E112E152E7008F2027108F33BD8
:100C2A000130F136F00C890B162E0130F502031D46
:100C3A001F2E202E072E76080319242E252E2A2E43
:100C4A00F209F309F20A0319F30A7308F1007208A8
:100C5A00F0000800FA00F801F9017A08033E86005C
:100C6A008701403FF000413FF100423FF200F301AB
:100C7A008431D1248631761C432E442E532E7A0891
:100C8A0086008701403FF000413FF100423FF200F9
:100C9A00F301F30A8431D1248631602E7A08860062
:100CAA008701403FF000413FF100423FF200F3016B
:100CBA008431D1248631003200000310F60C7A0800
:100CCA00033E86008701403FF000413FF100423F6A
:100CDA00F200F301F30A8431D12486310032000094
:100CEA000130F8070030F93D7908803AF700803082
:100CFA007702031D822E08307802031C852E862E69
:100D0A00322E08008431C224863122000C118C1242
:100D1A0002302000AE004530AD00A930890B932E79
:100D2A00AD0B932EAE0B932E003220003B08B7007A
:100D3A003A08B6003908B5003808B4003F08B300CD
:100D4A003E08B2003D08B1003C08B0003008A000DF
:100D5A003108A1003208A2003408A3003508A40013
:100D6A003608A5008431FF2486312000AD002D0805
:100D7A00AF000330AD002D08FB002F088431E824B2
:100D8A008631D2302000A0000430A1000130A20038
:100D9A000030A3002F0887313E278631113020000A
:100DAA00AD003A30890BD72EAD0BD72E0000D32ECB
:100DBA0080310228F601F11FE32EE42EEB2EF00912
:100DCA00F109F00A0319F10AF601F60AF31FEE2EE9
:100DDA00EF2EF82EF209F309F20A0319F30A013089
:100DEA00F4007408F606F701F80170087104031993
:100DFA00FF2E002F2F2FF501F50A0C2F0130F035A9
:100E0A00F10D890B042F0130F4007408F507F11F66
:100E1A000F2F102F032F0130F735F80D890B112FE3
:100E2A0071087302031D1B2F70087202031C1E2F08
:100E3A001F2F242F7008F2027108F33B7714013038
:100E4A00F136F00C890B252F0130F502031D2E2FE8
:100E5A002F2F102F76080319332F342F392FF70924
:100E6A00F809F70A0319F80A7808F1007708F00078
:100E7A0008002000AC00AA01AB010A30F0000030E3
:100E8A00F10020002108F3002008F2008531DC255A
:100E9A008731710885007008840000308407883023
:100EAA00853D0008FB0020002A08243E86008701B1
:100EBA007B08810002302A062B04031D652F662F4A
:100ECA00712F2208230403196B2F6C2F712F2A0804
:100EDA00243E8600870181170A30F0000030F100B5
:100EEA002108F3002008F2008631DF2687317108D5
:100EFA002000A1007008A0000130AA070030AB3D15
:100F0A002B08803AFB0080307B02031D8E2F0430B1
:100F1A002A02031C912F922F422F20002C08853180
:100F2A00412587314030FB007B08F60020002C0861
:100F3A0086312F26873120002C0885316E2587318E
:100F4A0020002C0885319F25873120002C08853107
:100F5A0041258731C030FB007B08F60020002C08B1
:100F6A0086312F26873120002C0885316E2587315E
:100F7A002000A801A90120002808033C243E86007D
:100F8A0087010108FB007B08F6002C0886312F2612
:100F9A00873120002C0885316E25873101302000E9
:100FAA00A8070030A93D2908803AFB0080307B025F
:100FBA00031DE12F04302802031CE42FE52FC02F64
:100FCA0020002C0885319F2587310800C93084000C
:100FDA00843085003830860000308700083084313C
:100FEA00B5248731C001C101C201C301C401C501D1
:100FFA0020008631872E3F3406345B344F34663402
:10100A006D347D3407347F346F3477347C3439342B
:10101A005E347934713400343F3406345B344F34EF
:10102A0066346D347D3407347F346F3477347C34DE
:0A103A0039345E34793471344034E7
:020000040001F9
:08000000FF3FFF3FFF3FFF3F00
:06000E00FC3FFF3E9F3F96
:00000001FF
